{
  "_format": "hh-sol-artifact-1",
  "contractName": "VestingContract",
  "sourceName": "contracts/VestingContract.sol",
  "abi": [
    {
      "inputs": [
        {
          "internalType": "address",
          "name": "tokenAddress",
          "type": "address"
        },
        {
          "internalType": "address",
          "name": "beneficiaryAddress",
          "type": "address"
        },
        {
          "internalType": "address",
          "name": "initialOwner",
          "type": "address"
        },
        {
          "internalType": "uint256[]",
          "name": "vestingDates",
          "type": "uint256[]"
        },
        {
          "internalType": "uint256[]",
          "name": "vestingAmounts",
          "type": "uint256[]"
        }
      ],
      "stateMutability": "nonpayable",
      "type": "constructor"
    },
    {
      "anonymous": false,
      "inputs": [
        {
          "indexed": true,
          "internalType": "address",
          "name": "token",
          "type": "address"
        },
        {
          "indexed": false,
          "internalType": "uint256",
          "name": "amount",
          "type": "uint256"
        }
      ],
      "name": "ERC20Released",
      "type": "event"
    },
    {
      "anonymous": false,
      "inputs": [
        {
          "indexed": false,
          "internalType": "uint256",
          "name": "amount",
          "type": "uint256"
        }
      ],
      "name": "EtherReleased",
      "type": "event"
    },
    {
      "anonymous": false,
      "inputs": [
        {
          "indexed": true,
          "internalType": "address",
          "name": "previousOwner",
          "type": "address"
        },
        {
          "indexed": true,
          "internalType": "address",
          "name": "newOwner",
          "type": "address"
        }
      ],
      "name": "OwnershipTransferred",
      "type": "event"
    },
    {
      "anonymous": false,
      "inputs": [
        {
          "indexed": false,
          "internalType": "uint256",
          "name": "totalSchedules",
          "type": "uint256"
        },
        {
          "indexed": false,
          "internalType": "uint256",
          "name": "totalAllocation",
          "type": "uint256"
        }
      ],
      "name": "VestingScheduleCreated",
      "type": "event"
    },
    {
      "anonymous": false,
      "inputs": [
        {
          "indexed": true,
          "internalType": "address",
          "name": "beneficiary",
          "type": "address"
        },
        {
          "indexed": false,
          "internalType": "uint256",
          "name": "amount",
          "type": "uint256"
        },
        {
          "indexed": false,
          "internalType": "uint256",
          "name": "timestamp",
          "type": "uint256"
        }
      ],
      "name": "VestingTokensReleased",
      "type": "event"
    },
    {
      "inputs": [],
      "name": "beneficiary",
      "outputs": [
        {
          "internalType": "address",
          "name": "",
          "type": "address"
        }
      ],
      "stateMutability": "view",
      "type": "function"
    },
    {
      "inputs": [],
      "name": "duration",
      "outputs": [
        {
          "internalType": "uint256",
          "name": "",
          "type": "uint256"
        }
      ],
      "stateMutability": "view",
      "type": "function"
    },
    {
      "inputs": [],
      "name": "getAllVestingSchedules",
      "outputs": [
        {
          "internalType": "uint256[]",
          "name": "dates",
          "type": "uint256[]"
        },
        {
          "internalType": "uint256[]",
          "name": "amounts",
          "type": "uint256[]"
        }
      ],
      "stateMutability": "view",
      "type": "function"
    },
    {
      "inputs": [],
      "name": "getReleasableAmount",
      "outputs": [
        {
          "internalType": "uint256",
          "name": "",
          "type": "uint256"
        }
      ],
      "stateMutability": "view",
      "type": "function"
    },
    {
      "inputs": [
        {
          "internalType": "uint256",
          "name": "timestamp",
          "type": "uint256"
        }
      ],
      "name": "getVestedAmount",
      "outputs": [
        {
          "internalType": "uint256",
          "name": "",
          "type": "uint256"
        }
      ],
      "stateMutability": "view",
      "type": "function"
    },
    {
      "inputs": [
        {
          "internalType": "uint256",
          "name": "index",
          "type": "uint256"
        }
      ],
      "name": "getVestingSchedule",
      "outputs": [
        {
          "internalType": "uint256",
          "name": "date",
          "type": "uint256"
        },
        {
          "internalType": "uint256",
          "name": "amount",
          "type": "uint256"
        }
      ],
      "stateMutability": "view",
      "type": "function"
    },
    {
      "inputs": [],
      "name": "getVestingScheduleCount",
      "outputs": [
        {
          "internalType": "uint256",
          "name": "",
          "type": "uint256"
        }
      ],
      "stateMutability": "view",
      "type": "function"
    },
    {
      "inputs": [],
      "name": "owner",
      "outputs": [
        {
          "internalType": "address",
          "name": "",
          "type": "address"
        }
      ],
      "stateMutability": "view",
      "type": "function"
    },
    {
      "inputs": [
        {
          "internalType": "address",
          "name": "recoveryToken",
          "type": "address"
        },
        {
          "internalType": "uint256",
          "name": "amount",
          "type": "uint256"
        }
      ],
      "name": "recoverTokens",
      "outputs": [],
      "stateMutability": "nonpayable",
      "type": "function"
    },
    {
      "inputs": [
        {
          "internalType": "address",
          "name": "token",
          "type": "address"
        }
      ],
      "name": "releasable",
      "outputs": [
        {
          "internalType": "uint256",
          "name": "",
          "type": "uint256"
        }
      ],
      "stateMutability": "view",
      "type": "function"
    },
    {
      "inputs": [],
      "name": "releasable",
      "outputs": [
        {
          "internalType": "uint256",
          "name": "",
          "type": "uint256"
        }
      ],
      "stateMutability": "view",
      "type": "function"
    },
    {
      "inputs": [
        {
          "internalType": "address",
          "name": "token",
          "type": "address"
        }
      ],
      "name": "release",
      "outputs": [],
      "stateMutability": "nonpayable",
      "type": "function"
    },
    {
      "inputs": [],
      "name": "release",
      "outputs": [],
      "stateMutability": "nonpayable",
      "type": "function"
    },
    {
      "inputs": [],
      "name": "released",
      "outputs": [
        {
          "internalType": "uint256",
          "name": "",
          "type": "uint256"
        }
      ],
      "stateMutability": "view",
      "type": "function"
    },
    {
      "inputs": [
        {
          "internalType": "address",
          "name": "token",
          "type": "address"
        }
      ],
      "name": "released",
      "outputs": [
        {
          "internalType": "uint256",
          "name": "",
          "type": "uint256"
        }
      ],
      "stateMutability": "view",
      "type": "function"
    },
    {
      "inputs": [],
      "name": "renounceOwnership",
      "outputs": [],
      "stateMutability": "nonpayable",
      "type": "function"
    },
    {
      "inputs": [],
      "name": "start",
      "outputs": [
        {
          "internalType": "uint256",
          "name": "",
          "type": "uint256"
        }
      ],
      "stateMutability": "view",
      "type": "function"
    },
    {
      "inputs": [],
      "name": "totalAllocation",
      "outputs": [
        {
          "internalType": "uint256",
          "name": "",
          "type": "uint256"
        }
      ],
      "stateMutability": "view",
      "type": "function"
    },
    {
      "inputs": [
        {
          "internalType": "address",
          "name": "newOwner",
          "type": "address"
        }
      ],
      "name": "transferOwnership",
      "outputs": [],
      "stateMutability": "nonpayable",
      "type": "function"
    },
    {
      "inputs": [
        {
          "internalType": "uint64",
          "name": "timestamp",
          "type": "uint64"
        }
      ],
      "name": "vestedAmount",
      "outputs": [
        {
          "internalType": "uint256",
          "name": "",
          "type": "uint256"
        }
      ],
      "stateMutability": "view",
      "type": "function"
    },
    {
      "inputs": [
        {
          "internalType": "address",
          "name": "token",
          "type": "address"
        },
        {
          "internalType": "uint64",
          "name": "timestamp",
          "type": "uint64"
        }
      ],
      "name": "vestedAmount",
      "outputs": [
        {
          "internalType": "uint256",
          "name": "",
          "type": "uint256"
        }
      ],
      "stateMutability": "view",
      "type": "function"
    },
    {
      "inputs": [
        {
          "internalType": "uint256",
          "name": "",
          "type": "uint256"
        }
      ],
      "name": "vestingSchedules",
      "outputs": [
        {
          "internalType": "uint256",
          "name": "date",
          "type": "uint256"
        },
        {
          "internalType": "uint256",
          "name": "amount",
          "type": "uint256"
        }
      ],
      "stateMutability": "view",
      "type": "function"
    },
    {
      "inputs": [],
      "name": "vestingToken",
      "outputs": [
        {
          "internalType": "contract IERC20",
          "name": "",
          "type": "address"
        }
      ],
      "stateMutability": "view",
      "type": "function"
    },
    {
      "stateMutability": "payable",
      "type": "receive"
    }
  ],
  "bytecode": "0x6101206040523480156200001257600080fd5b506040516200335838038062003358833981810160405281019062000038919062000930565b83600080600073ffffffffffffffffffffffffffffffffffffffff168373ffffffffffffffffffffffffffffffffffffffff1603620000ae576040517f08c379a0000000000000000000000000000000000000000000000000000000008152600401620000a59062000a7d565b60405180910390fd5b8273ffffffffffffffffffffffffffffffffffffffff1660808173ffffffffffffffffffffffffffffffffffffffff16815250508167ffffffffffffffff1660a08167ffffffffffffffff16815250508067ffffffffffffffff1660c08167ffffffffffffffff1681525050505050600160028190555062000145620001396200063960201b60201c565b6200064160201b60201c565b600073ffffffffffffffffffffffffffffffffffffffff168573ffffffffffffffffffffffffffffffffffffffff1603620001b7576040517f08c379a0000000000000000000000000000000000000000000000000000000008152600401620001ae9062000b15565b60405180910390fd5b600073ffffffffffffffffffffffffffffffffffffffff168473ffffffffffffffffffffffffffffffffffffffff160362000229576040517f08c379a0000000000000000000000000000000000000000000000000000000008152600401620002209062000bad565b60405180910390fd5b600073ffffffffffffffffffffffffffffffffffffffff168373ffffffffffffffffffffffffffffffffffffffff16036200029b576040517f08c379a0000000000000000000000000000000000000000000000000000000008152600401620002929062000c45565b60405180910390fd5b6000825111620002e2576040517f08c379a0000000000000000000000000000000000000000000000000000000008152600401620002d99062000cdd565b60405180910390fd5b805182511462000329576040517f08c379a0000000000000000000000000000000000000000000000000000000008152600401620003209062000d75565b60405180910390fd5b60008060005b84518110156200055457600085828151811062000351576200035062000d97565b5b6020026020010151116200039c576040517f08c379a0000000000000000000000000000000000000000000000000000000008152600401620003939062000e3c565b60405180910390fd5b6000848281518110620003b457620003b362000d97565b5b602002602001015111620003ff576040517f08c379a0000000000000000000000000000000000000000000000000000000008152600401620003f69062000ed4565b60405180910390fd5b8185828151811062000416576200041562000d97565b5b60200260200101511162000461576040517f08c379a0000000000000000000000000000000000000000000000000000000008152600401620004589062000f6c565b60405180910390fd5b6004604051806040016040528087848151811062000484576200048362000d97565b5b60200260200101518152602001868481518110620004a757620004a662000d97565b5b602002602001015181525090806001815401808255809150506001900390600052602060002090600202016000909190919091506000820151816000015560208201518160010155505083818151811062000507576200050662000d97565b5b6020026020010151836200051c919062000fbd565b925084818151811062000534576200053362000d97565b5b6020026020010151915080806200054b9062000ff8565b9150506200032f565b50600082116200059b576040517f08c379a00000000000000000000000000000000000000000000000000000000081526004016200059290620010bb565b60405180910390fd5b8673ffffffffffffffffffffffffffffffffffffffff1660e08173ffffffffffffffffffffffffffffffffffffffff1681525050816101008181525050620005e9856200064160201b60201c565b7f483643c842693f4e9d95325d163328916b0c07c54396dcbeb56f120305c61e3a6004805490506101005160405162000624929190620010ee565b60405180910390a1505050505050506200111b565b600033905090565b6000600360009054906101000a900473ffffffffffffffffffffffffffffffffffffffff16905081600360006101000a81548173ffffffffffffffffffffffffffffffffffffffff021916908373ffffffffffffffffffffffffffffffffffffffff1602179055508173ffffffffffffffffffffffffffffffffffffffff168173ffffffffffffffffffffffffffffffffffffffff167f8be0079c531659141344cd1fd0a4f28419497f9722a3daafe3b4186f6b6457e060405160405180910390a35050565b6000604051905090565b600080fd5b600080fd5b600073ffffffffffffffffffffffffffffffffffffffff82169050919050565b600062000748826200071b565b9050919050565b6200075a816200073b565b81146200076657600080fd5b50565b6000815190506200077a816200074f565b92915050565b600080fd5b6000601f19601f8301169050919050565b7f4e487b7100000000000000000000000000000000000000000000000000000000600052604160045260246000fd5b620007d08262000785565b810181811067ffffffffffffffff82111715620007f257620007f162000796565b5b80604052505050565b60006200080762000707565b9050620008158282620007c5565b919050565b600067ffffffffffffffff82111562000838576200083762000796565b5b602082029050602081019050919050565b600080fd5b6000819050919050565b62000863816200084e565b81146200086f57600080fd5b50565b600081519050620008838162000858565b92915050565b6000620008a06200089a846200081a565b620007fb565b90508083825260208201905060208402830185811115620008c657620008c562000849565b5b835b81811015620008f35780620008de888262000872565b845260208401935050602081019050620008c8565b5050509392505050565b600082601f83011262000915576200091462000780565b5b81516200092784826020860162000889565b91505092915050565b600080600080600060a086880312156200094f576200094e62000711565b5b60006200095f8882890162000769565b9550506020620009728882890162000769565b9450506040620009858882890162000769565b935050606086015167ffffffffffffffff811115620009a957620009a862000716565b5b620009b788828901620008fd565b925050608086015167ffffffffffffffff811115620009db57620009da62000716565b5b620009e988828901620008fd565b9150509295509295909350565b600082825260208201905092915050565b7f56657374696e6757616c6c65743a2062656e6566696369617279206973207a6560008201527f726f206164647265737300000000000000000000000000000000000000000000602082015250565b600062000a65602a83620009f6565b915062000a728262000a07565b604082019050919050565b6000602082019050818103600083015262000a988162000a56565b9050919050565b7f56657374696e67436f6e74726163743a20746f6b656e2061646472657373206960008201527f73207a65726f0000000000000000000000000000000000000000000000000000602082015250565b600062000afd602683620009f6565b915062000b0a8262000a9f565b604082019050919050565b6000602082019050818103600083015262000b308162000aee565b9050919050565b7f56657374696e67436f6e74726163743a2062656e65666963696172792069732060008201527f7a65726f20616464726573730000000000000000000000000000000000000000602082015250565b600062000b95602c83620009f6565b915062000ba28262000b37565b604082019050919050565b6000602082019050818103600083015262000bc88162000b86565b9050919050565b7f56657374696e67436f6e74726163743a20696e697469616c206f776e6572206960008201527f73207a65726f2061646472657373000000000000000000000000000000000000602082015250565b600062000c2d602e83620009f6565b915062000c3a8262000bcf565b604082019050919050565b6000602082019050818103600083015262000c608162000c1e565b9050919050565b7f56657374696e67436f6e74726163743a206e6f2076657374696e67206461746560008201527f732070726f766964656400000000000000000000000000000000000000000000602082015250565b600062000cc5602a83620009f6565b915062000cd28262000c67565b604082019050919050565b6000602082019050818103600083015262000cf88162000cb6565b9050919050565b7f56657374696e67436f6e74726163743a20646174657320616e6420616d6f756e60008201527f7473206c656e677468206d69736d617463680000000000000000000000000000602082015250565b600062000d5d603283620009f6565b915062000d6a8262000cff565b604082019050919050565b6000602082019050818103600083015262000d908162000d4e565b9050919050565b7f4e487b7100000000000000000000000000000000000000000000000000000000600052603260045260246000fd5b7f56657374696e67436f6e74726163743a2076657374696e67206461746520636160008201527f6e6e6f74206265207a65726f0000000000000000000000000000000000000000602082015250565b600062000e24602c83620009f6565b915062000e318262000dc6565b604082019050919050565b6000602082019050818103600083015262000e578162000e15565b9050919050565b7f56657374696e67436f6e74726163743a2076657374696e6720616d6f756e742060008201527f63616e6e6f74206265207a65726f000000000000000000000000000000000000602082015250565b600062000ebc602e83620009f6565b915062000ec98262000e5e565b604082019050919050565b6000602082019050818103600083015262000eef8162000ead565b9050919050565b7f56657374696e67436f6e74726163743a2076657374696e67206461746573206d60008201527f75737420626520696e20617363656e64696e67206f7264657200000000000000602082015250565b600062000f54603983620009f6565b915062000f618262000ef6565b604082019050919050565b6000602082019050818103600083015262000f878162000f45565b9050919050565b7f4e487b7100000000000000000000000000000000000000000000000000000000600052601160045260246000fd5b600062000fca826200084e565b915062000fd7836200084e565b925082820190508082111562000ff25762000ff162000f8e565b5b92915050565b600062001005826200084e565b91507fffffffffffffffffffffffffffffffffffffffffffffffffffffffffffffffff82036200103a576200103962000f8e565b5b600182019050919050565b7f56657374696e67436f6e74726163743a20746f74616c20616c6c6f636174696f60008201527f6e206d7573742062652067726561746572207468616e207a65726f0000000000602082015250565b6000620010a3603b83620009f6565b9150620010b08262001045565b604082019050919050565b60006020820190508181036000830152620010d68162001094565b9050919050565b620010e8816200084e565b82525050565b6000604082019050620011056000830185620010dd565b620011146020830184620010dd565b9392505050565b60805160a05160c05160e051610100516121dc6200117c600039600061080d01526000818161062f0152818161077901528181610833015281816109370152610c90015260006105f701526000610bd70152600061079f01526121dc6000f3fe6080604052600436106101445760003560e01c806386d1a69f116100b6578063b195880b1161006f578063b195880b1461045a578063be9a655514610486578063beb8f883146104b1578063cafeedf6146104ef578063f2fde38b1461052c578063fbccedae146105555761014b565b806386d1a69f146103485780638da5cb5b1461035f5780639295ccec1461038a57806396132521146103b55780639852595c146103e0578063a3f8eace1461041d5761014b565b806338af3eed1161010857806338af3eed146102355780636d3cbe2114610260578063715018a61461029e57806379203dc4146102b5578063810ec23b146102e05780638401b9681461031d5761014b565b8063069c9fae146101505780630a17b06b146101795780630fb5a6b4146101b657806319165587146101e157806319d152fa1461020a5761014b565b3661014b57005b600080fd5b34801561015c57600080fd5b506101776004803603810190610172919061150d565b610580565b005b34801561018557600080fd5b506101a0600480360381019061019b919061158d565b6105ce565b6040516101ad91906115c9565b60405180910390f35b3480156101c257600080fd5b506101cb6105f3565b6040516101d891906115c9565b60405180910390f35b3480156101ed57600080fd5b50610208600480360381019061020391906115e4565b610625565b005b34801561021657600080fd5b5061021f610777565b60405161022c9190611670565b60405180910390f35b34801561024157600080fd5b5061024a61079b565b604051610257919061169a565b60405180910390f35b34801561026c57600080fd5b50610287600480360381019061028291906116b5565b6107c3565b6040516102959291906116e2565b60405180910390f35b3480156102aa57600080fd5b506102b36107f7565b005b3480156102c157600080fd5b506102ca61080b565b6040516102d791906115c9565b60405180910390f35b3480156102ec57600080fd5b506103076004803603810190610302919061170b565b61082f565b60405161031491906115c9565b60405180910390f35b34801561032957600080fd5b50610332610930565b60405161033f91906115c9565b60405180910390f35b34801561035457600080fd5b5061035d610960565b005b34801561036b57600080fd5b506103746109cf565b604051610381919061169a565b60405180910390f35b34801561039657600080fd5b5061039f6109f9565b6040516103ac91906115c9565b60405180910390f35b3480156103c157600080fd5b506103ca610a06565b6040516103d791906115c9565b60405180910390f35b3480156103ec57600080fd5b50610407600480360381019061040291906115e4565b610a0f565b60405161041491906115c9565b60405180910390f35b34801561042957600080fd5b50610444600480360381019061043f91906115e4565b610a58565b60405161045191906115c9565b60405180910390f35b34801561046657600080fd5b5061046f610a7e565b60405161047d929190611809565b60405180910390f35b34801561049257600080fd5b5061049b610bd3565b6040516104a891906115c9565b60405180910390f35b3480156104bd57600080fd5b506104d860048036038101906104d391906116b5565b610c05565b6040516104e69291906116e2565b60405180910390f35b3480156104fb57600080fd5b50610516600480360381019061051191906116b5565b610c89565b60405161052391906115c9565b60405180910390f35b34801561053857600080fd5b50610553600480360381019061054e91906115e4565b610cbc565b005b34801561056157600080fd5b5061056a610d3f565b60405161057791906115c9565b60405180910390f35b610588610d61565b610590610ddf565b6105c261059b6109cf565b828473ffffffffffffffffffffffffffffffffffffffff16610e2c9092919063ffffffff16565b6105ca610eb2565b5050565b60006105ec6105db610a06565b476105e6919061186f565b83610ebc565b9050919050565b60007f000000000000000000000000000000000000000000000000000000000000000067ffffffffffffffff16905090565b61062d610ddf565b7f000000000000000000000000000000000000000000000000000000000000000073ffffffffffffffffffffffffffffffffffffffff168173ffffffffffffffffffffffffffffffffffffffff16146106bb576040517f08c379a00000000000000000000000000000000000000000000000000000000081526004016106b290611926565b60405180910390fd5b60006106c682610a58565b90506000811161070b576040517f08c379a0000000000000000000000000000000000000000000000000000000008152600401610702906119b8565b60405180910390fd5b61071361079b565b73ffffffffffffffffffffffffffffffffffffffff167f1e24ee3cf4c42b0d1361ec5959f5d49a757a57c746629d2a1555e0b6f34ad0d6824260405161075a9291906116e2565b60405180910390a261076b82610f56565b50610774610eb2565b50565b7f000000000000000000000000000000000000000000000000000000000000000081565b60007f0000000000000000000000000000000000000000000000000000000000000000905090565b600481815481106107d357600080fd5b90600052602060002090600202016000915090508060000154908060010154905082565b6107ff610d61565b610809600061101d565b565b7f000000000000000000000000000000000000000000000000000000000000000081565b60007f000000000000000000000000000000000000000000000000000000000000000073ffffffffffffffffffffffffffffffffffffffff168373ffffffffffffffffffffffffffffffffffffffff161461088d576000905061092a565b6000805b60048054905081101561092457600481815481106108b2576108b16119d8565b5b9060005260206000209060020201600001548467ffffffffffffffff161061090c57600481815481106108e8576108e76119d8565b5b90600052602060002090600202016001015482610905919061186f565b9150610911565b610924565b808061091c90611a07565b915050610891565b50809150505b92915050565b600061095b7f0000000000000000000000000000000000000000000000000000000000000000610a58565b905090565b600061096a610d3f565b90508060008082825461097d919061186f565b925050819055507fda9d4e5f101b8b9b1c5b76d0c5a9f7923571acfc02376aa076b75a8c080c956b816040516109b391906115c9565b60405180910390a16109cc6109c661079b565b826110e3565b50565b6000600360009054906101000a900473ffffffffffffffffffffffffffffffffffffffff16905090565b6000600480549050905090565b60008054905090565b6000600160008373ffffffffffffffffffffffffffffffffffffffff1673ffffffffffffffffffffffffffffffffffffffff168152602001908152602001600020549050919050565b6000610a6382610a0f565b610a6d834261082f565b610a779190611a4f565b9050919050565b60608060048054905067ffffffffffffffff811115610aa057610a9f611a83565b5b604051908082528060200260200182016040528015610ace5781602001602082028036833780820191505090505b50915060048054905067ffffffffffffffff811115610af057610aef611a83565b5b604051908082528060200260200182016040528015610b1e5781602001602082028036833780820191505090505b50905060005b600480549050811015610bce5760048181548110610b4557610b446119d8565b5b906000526020600020906002020160000154838281518110610b6a57610b696119d8565b5b60200260200101818152505060048181548110610b8a57610b896119d8565b5b906000526020600020906002020160010154828281518110610baf57610bae6119d8565b5b6020026020010181815250508080610bc690611a07565b915050610b24565b509091565b60007f000000000000000000000000000000000000000000000000000000000000000067ffffffffffffffff16905090565b6000806004805490508310610c4f576040517f08c379a0000000000000000000000000000000000000000000000000000000008152600401610c4690611b24565b60405180910390fd5b600060048481548110610c6557610c646119d8565b5b90600052602060002090600202019050806000015481600101549250925050915091565b6000610cb57f00000000000000000000000000000000000000000000000000000000000000008361082f565b9050919050565b610cc4610d61565b600073ffffffffffffffffffffffffffffffffffffffff168173ffffffffffffffffffffffffffffffffffffffff1603610d33576040517f08c379a0000000000000000000000000000000000000000000000000000000008152600401610d2a90611bb6565b60405180910390fd5b610d3c8161101d565b50565b6000610d49610a06565b610d52426105ce565b610d5c9190611a4f565b905090565b610d696111d7565b73ffffffffffffffffffffffffffffffffffffffff16610d876109cf565b73ffffffffffffffffffffffffffffffffffffffff1614610ddd576040517f08c379a0000000000000000000000000000000000000000000000000000000008152600401610dd490611c22565b60405180910390fd5b565b6002805403610e23576040517f08c379a0000000000000000000000000000000000000000000000000000000008152600401610e1a90611c8e565b60405180910390fd5b60028081905550565b610ead8363a9059cbb60e01b8484604051602401610e4b929190611cae565b604051602081830303815290604052907bffffffffffffffffffffffffffffffffffffffffffffffffffffffff19166020820180517bffffffffffffffffffffffffffffffffffffffffffffffffffffffff83818316178352505050506111df565b505050565b6001600281905550565b6000610ec6610bd3565b8267ffffffffffffffff161015610ee05760009050610f50565b610ee86105f3565b610ef0610bd3565b610efa919061186f565b8267ffffffffffffffff161115610f1357829050610f50565b610f1b6105f3565b610f23610bd3565b8367ffffffffffffffff16610f389190611a4f565b84610f439190611cd7565b610f4d9190611d48565b90505b92915050565b6000610f6182610a58565b905080600160008473ffffffffffffffffffffffffffffffffffffffff1673ffffffffffffffffffffffffffffffffffffffff1681526020019081526020016000206000828254610fb2919061186f565b925050819055508173ffffffffffffffffffffffffffffffffffffffff167fc0e523490dd523c33b1878c9eb14ff46991e3f5b2cd33710918618f2a39cba1b82604051610fff91906115c9565b60405180910390a26110198261101361079b565b83610e2c565b5050565b6000600360009054906101000a900473ffffffffffffffffffffffffffffffffffffffff16905081600360006101000a81548173ffffffffffffffffffffffffffffffffffffffff021916908373ffffffffffffffffffffffffffffffffffffffff1602179055508173ffffffffffffffffffffffffffffffffffffffff168173ffffffffffffffffffffffffffffffffffffffff167f8be0079c531659141344cd1fd0a4f28419497f9722a3daafe3b4186f6b6457e060405160405180910390a35050565b80471015611126576040517f08c379a000000000000000000000000000000000000000000000000000000000815260040161111d90611dc5565b60405180910390fd5b60008273ffffffffffffffffffffffffffffffffffffffff168260405161114c90611e16565b60006040518083038185875af1925050503d8060008114611189576040519150601f19603f3d011682016040523d82523d6000602084013e61118e565b606091505b50509050806111d2576040517f08c379a00000000000000000000000000000000000000000000000000000000081526004016111c990611e9d565b60405180910390fd5b505050565b600033905090565b6000611241826040518060400160405280602081526020017f5361666545524332303a206c6f772d6c6576656c2063616c6c206661696c65648152508573ffffffffffffffffffffffffffffffffffffffff166112a79092919063ffffffff16565b90506000815114806112635750808060200190518101906112629190611ef5565b5b6112a2576040517f08c379a000000000000000000000000000000000000000000000000000000000815260040161129990611f94565b60405180910390fd5b505050565b60606112b684846000856112bf565b90509392505050565b606082471015611304576040517f08c379a00000000000000000000000000000000000000000000000000000000081526004016112fb90612026565b60405180910390fd5b6000808673ffffffffffffffffffffffffffffffffffffffff16858760405161132d91906120ac565b60006040518083038185875af1925050503d806000811461136a576040519150601f19603f3d011682016040523d82523d6000602084013e61136f565b606091505b50915091506113808783838761138c565b92505050949350505050565b606083156113ee5760008351036113e6576113a685611401565b6113e5576040517f08c379a00000000000000000000000000000000000000000000000000000000081526004016113dc9061210f565b60405180910390fd5b5b8290506113f9565b6113f88383611424565b5b949350505050565b6000808273ffffffffffffffffffffffffffffffffffffffff163b119050919050565b6000825111156114375781518083602001fd5b806040517f08c379a000000000000000000000000000000000000000000000000000000000815260040161146b9190612184565b60405180910390fd5b600080fd5b600073ffffffffffffffffffffffffffffffffffffffff82169050919050565b60006114a482611479565b9050919050565b6114b481611499565b81146114bf57600080fd5b50565b6000813590506114d1816114ab565b92915050565b6000819050919050565b6114ea816114d7565b81146114f557600080fd5b50565b600081359050611507816114e1565b92915050565b6000806040838503121561152457611523611474565b5b6000611532858286016114c2565b9250506020611543858286016114f8565b9150509250929050565b600067ffffffffffffffff82169050919050565b61156a8161154d565b811461157557600080fd5b50565b60008135905061158781611561565b92915050565b6000602082840312156115a3576115a2611474565b5b60006115b184828501611578565b91505092915050565b6115c3816114d7565b82525050565b60006020820190506115de60008301846115ba565b92915050565b6000602082840312156115fa576115f9611474565b5b6000611608848285016114c2565b91505092915050565b6000819050919050565b600061163661163161162c84611479565b611611565b611479565b9050919050565b60006116488261161b565b9050919050565b600061165a8261163d565b9050919050565b61166a8161164f565b82525050565b60006020820190506116856000830184611661565b92915050565b61169481611499565b82525050565b60006020820190506116af600083018461168b565b92915050565b6000602082840312156116cb576116ca611474565b5b60006116d9848285016114f8565b91505092915050565b60006040820190506116f760008301856115ba565b61170460208301846115ba565b9392505050565b6000806040838503121561172257611721611474565b5b6000611730858286016114c2565b925050602061174185828601611578565b9150509250929050565b600081519050919050565b600082825260208201905092915050565b6000819050602082019050919050565b611780816114d7565b82525050565b60006117928383611777565b60208301905092915050565b6000602082019050919050565b60006117b68261174b565b6117c08185611756565b93506117cb83611767565b8060005b838110156117fc5781516117e38882611786565b97506117ee8361179e565b9250506001810190506117cf565b5085935050505092915050565b6000604082019050818103600083015261182381856117ab565b9050818103602083015261183781846117ab565b90509392505050565b7f4e487b7100000000000000000000000000000000000000000000000000000000600052601160045260246000fd5b600061187a826114d7565b9150611885836114d7565b925082820190508082111561189d5761189c611840565b5b92915050565b600082825260208201905092915050565b7f56657374696e67436f6e74726163743a206f6e6c792076657374696e6720746f60008201527f6b656e2063616e2062652072656c656173656400000000000000000000000000602082015250565b60006119106033836118a3565b915061191b826118b4565b604082019050919050565b6000602082019050818103600083015261193f81611903565b9050919050565b7f56657374696e67436f6e74726163743a206e6f20746f6b656e7320617661696c60008201527f61626c6520666f722072656c6561736500000000000000000000000000000000602082015250565b60006119a26030836118a3565b91506119ad82611946565b604082019050919050565b600060208201905081810360008301526119d181611995565b9050919050565b7f4e487b7100000000000000000000000000000000000000000000000000000000600052603260045260246000fd5b6000611a12826114d7565b91507fffffffffffffffffffffffffffffffffffffffffffffffffffffffffffffffff8203611a4457611a43611840565b5b600182019050919050565b6000611a5a826114d7565b9150611a65836114d7565b9250828203905081811115611a7d57611a7c611840565b5b92915050565b7f4e487b7100000000000000000000000000000000000000000000000000000000600052604160045260246000fd5b7f56657374696e67436f6e74726163743a20696e646578206f7574206f6620626f60008201527f756e647300000000000000000000000000000000000000000000000000000000602082015250565b6000611b0e6024836118a3565b9150611b1982611ab2565b604082019050919050565b60006020820190508181036000830152611b3d81611b01565b9050919050565b7f4f776e61626c653a206e6577206f776e657220697320746865207a65726f206160008201527f6464726573730000000000000000000000000000000000000000000000000000602082015250565b6000611ba06026836118a3565b9150611bab82611b44565b604082019050919050565b60006020820190508181036000830152611bcf81611b93565b9050919050565b7f4f776e61626c653a2063616c6c6572206973206e6f7420746865206f776e6572600082015250565b6000611c0c6020836118a3565b9150611c1782611bd6565b602082019050919050565b60006020820190508181036000830152611c3b81611bff565b9050919050565b7f5265656e7472616e637947756172643a207265656e7472616e742063616c6c00600082015250565b6000611c78601f836118a3565b9150611c8382611c42565b602082019050919050565b60006020820190508181036000830152611ca781611c6b565b9050919050565b6000604082019050611cc3600083018561168b565b611cd060208301846115ba565b9392505050565b6000611ce2826114d7565b9150611ced836114d7565b9250828202611cfb816114d7565b91508282048414831517611d1257611d11611840565b5b5092915050565b7f4e487b7100000000000000000000000000000000000000000000000000000000600052601260045260246000fd5b6000611d53826114d7565b9150611d5e836114d7565b925082611d6e57611d6d611d19565b5b828204905092915050565b7f416464726573733a20696e73756666696369656e742062616c616e6365000000600082015250565b6000611daf601d836118a3565b9150611dba82611d79565b602082019050919050565b60006020820190508181036000830152611dde81611da2565b9050919050565b600081905092915050565b50565b6000611e00600083611de5565b9150611e0b82611df0565b600082019050919050565b6000611e2182611df3565b9150819050919050565b7f416464726573733a20756e61626c6520746f2073656e642076616c75652c207260008201527f6563697069656e74206d61792068617665207265766572746564000000000000602082015250565b6000611e87603a836118a3565b9150611e9282611e2b565b604082019050919050565b60006020820190508181036000830152611eb681611e7a565b9050919050565b60008115159050919050565b611ed281611ebd565b8114611edd57600080fd5b50565b600081519050611eef81611ec9565b92915050565b600060208284031215611f0b57611f0a611474565b5b6000611f1984828501611ee0565b91505092915050565b7f5361666545524332303a204552433230206f7065726174696f6e20646964206e60008201527f6f74207375636365656400000000000000000000000000000000000000000000602082015250565b6000611f7e602a836118a3565b9150611f8982611f22565b604082019050919050565b60006020820190508181036000830152611fad81611f71565b9050919050565b7f416464726573733a20696e73756666696369656e742062616c616e636520666f60008201527f722063616c6c0000000000000000000000000000000000000000000000000000602082015250565b60006120106026836118a3565b915061201b82611fb4565b604082019050919050565b6000602082019050818103600083015261203f81612003565b9050919050565b600081519050919050565b60005b8381101561206f578082015181840152602081019050612054565b60008484015250505050565b600061208682612046565b6120908185611de5565b93506120a0818560208601612051565b80840191505092915050565b60006120b8828461207b565b915081905092915050565b7f416464726573733a2063616c6c20746f206e6f6e2d636f6e7472616374000000600082015250565b60006120f9601d836118a3565b9150612104826120c3565b602082019050919050565b60006020820190508181036000830152612128816120ec565b9050919050565b600081519050919050565b6000601f19601f8301169050919050565b60006121568261212f565b61216081856118a3565b9350612170818560208601612051565b6121798161213a565b840191505092915050565b6000602082019050818103600083015261219e818461214b565b90509291505056fea2646970667358221220d34f02680b0c18f1b5f8b458bc61efeb8eec2222fc086458ef3e3a43ed5e50d664736f6c63430008140033",
  "linkReferences": {},
  "deployedLinkReferences": {}
}