{
  "_format": "hh-sol-artifact-1",
  "contractName": "VestingManager",
  "sourceName": "contracts/VestingManager.sol",
  "abi": [
    {
      "inputs": [
        {
          "internalType": "address",
          "name": "initialOwner",
          "type": "address"
        },
        {
          "internalType": "address[]",
          "name": "initialVestingContracts",
          "type": "address[]"
        }
      ],
      "stateMutability": "nonpayable",
      "type": "constructor"
    },
    {
      "anonymous": false,
      "inputs": [
        {
          "indexed": true,
          "internalType": "address",
          "name": "previousOwner",
          "type": "address"
        },
        {
          "indexed": true,
          "internalType": "address",
          "name": "newOwner",
          "type": "address"
        }
      ],
      "name": "OwnershipTransferred",
      "type": "event"
    },
    {
      "anonymous": false,
      "inputs": [
        {
          "indexed": true,
          "internalType": "address",
          "name": "contractAddress",
          "type": "address"
        },
        {
          "indexed": true,
          "internalType": "address",
          "name": "beneficiary",
          "type": "address"
        },
        {
          "indexed": true,
          "internalType": "address",
          "name": "token",
          "type": "address"
        },
        {
          "indexed": false,
          "internalType": "uint256",
          "name": "totalAllocation",
          "type": "uint256"
        }
      ],
      "name": "VestingContractRegistered",
      "type": "event"
    },
    {
      "anonymous": false,
      "inputs": [
        {
          "indexed": true,
          "internalType": "address",
          "name": "contractAddress",
          "type": "address"
        },
        {
          "indexed": true,
          "internalType": "address",
          "name": "beneficiary",
          "type": "address"
        },
        {
          "indexed": true,
          "internalType": "address",
          "name": "token",
          "type": "address"
        }
      ],
      "name": "VestingContractRemoved",
      "type": "event"
    },
    {
      "inputs": [
        {
          "internalType": "address",
          "name": "",
          "type": "address"
        },
        {
          "internalType": "uint256",
          "name": "",
          "type": "uint256"
        }
      ],
      "name": "beneficiaryContracts",
      "outputs": [
        {
          "internalType": "address",
          "name": "",
          "type": "address"
        }
      ],
      "stateMutability": "view",
      "type": "function"
    },
    {
      "inputs": [],
      "name": "getAllVestingContracts",
      "outputs": [
        {
          "internalType": "address[]",
          "name": "contracts",
          "type": "address[]"
        }
      ],
      "stateMutability": "view",
      "type": "function"
    },
    {
      "inputs": [
        {
          "internalType": "address",
          "name": "token",
          "type": "address"
        }
      ],
      "name": "getAllVestingDetails",
      "outputs": [
        {
          "internalType": "address[]",
          "name": "contractAddresses",
          "type": "address[]"
        },
        {
          "internalType": "address[]",
          "name": "beneficiaries",
          "type": "address[]"
        },
        {
          "internalType": "address[]",
          "name": "tokens",
          "type": "address[]"
        },
        {
          "internalType": "uint256[]",
          "name": "totalAllocations",
          "type": "uint256[]"
        },
        {
          "internalType": "uint256[]",
          "name": "vestedAmounts",
          "type": "uint256[]"
        },
        {
          "internalType": "uint256[]",
          "name": "releasableAmounts",
          "type": "uint256[]"
        },
        {
          "internalType": "uint256[]",
          "name": "releasedAmounts",
          "type": "uint256[]"
        }
      ],
      "stateMutability": "view",
      "type": "function"
    },
    {
      "inputs": [
        {
          "internalType": "address",
          "name": "beneficiary",
          "type": "address"
        }
      ],
      "name": "getBeneficiaryContracts",
      "outputs": [
        {
          "internalType": "address[]",
          "name": "contracts",
          "type": "address[]"
        }
      ],
      "stateMutability": "view",
      "type": "function"
    },
    {
      "inputs": [
        {
          "internalType": "address",
          "name": "beneficiary",
          "type": "address"
        },
        {
          "internalType": "address",
          "name": "token",
          "type": "address"
        }
      ],
      "name": "getBeneficiarySummary",
      "outputs": [
        {
          "internalType": "uint256",
          "name": "locked",
          "type": "uint256"
        },
        {
          "internalType": "uint256",
          "name": "vested",
          "type": "uint256"
        },
        {
          "internalType": "uint256",
          "name": "releasable",
          "type": "uint256"
        },
        {
          "internalType": "uint256",
          "name": "released",
          "type": "uint256"
        }
      ],
      "stateMutability": "view",
      "type": "function"
    },
    {
      "inputs": [
        {
          "internalType": "address",
          "name": "token",
          "type": "address"
        }
      ],
      "name": "getCompleteVestingInfo",
      "outputs": [
        {
          "components": [
            {
              "internalType": "uint256",
              "name": "totalLocked",
              "type": "uint256"
            },
            {
              "internalType": "uint256",
              "name": "totalVested",
              "type": "uint256"
            },
            {
              "internalType": "uint256",
              "name": "totalReleasable",
              "type": "uint256"
            },
            {
              "internalType": "uint256",
              "name": "totalReleased",
              "type": "uint256"
            }
          ],
          "internalType": "struct VestingManager.VestingOverview",
          "name": "overview",
          "type": "tuple"
        },
        {
          "components": [
            {
              "internalType": "address",
              "name": "contractAddress",
              "type": "address"
            },
            {
              "internalType": "address",
              "name": "beneficiary",
              "type": "address"
            },
            {
              "internalType": "address",
              "name": "token",
              "type": "address"
            },
            {
              "internalType": "uint256",
              "name": "totalAllocation",
              "type": "uint256"
            },
            {
              "internalType": "uint256",
              "name": "vestedAmount",
              "type": "uint256"
            },
            {
              "internalType": "uint256",
              "name": "releasableAmount",
              "type": "uint256"
            },
            {
              "internalType": "uint256",
              "name": "releasedAmount",
              "type": "uint256"
            }
          ],
          "internalType": "struct VestingManager.VestingDetails[]",
          "name": "contracts",
          "type": "tuple[]"
        }
      ],
      "stateMutability": "view",
      "type": "function"
    },
    {
      "inputs": [
        {
          "internalType": "address",
          "name": "token",
          "type": "address"
        }
      ],
      "name": "getTokenContracts",
      "outputs": [
        {
          "internalType": "address[]",
          "name": "contracts",
          "type": "address[]"
        }
      ],
      "stateMutability": "view",
      "type": "function"
    },
    {
      "inputs": [
        {
          "internalType": "address",
          "name": "token",
          "type": "address"
        }
      ],
      "name": "getTotalLocked",
      "outputs": [
        {
          "internalType": "uint256",
          "name": "totalLocked",
          "type": "uint256"
        }
      ],
      "stateMutability": "view",
      "type": "function"
    },
    {
      "inputs": [
        {
          "internalType": "address",
          "name": "token",
          "type": "address"
        }
      ],
      "name": "getTotalReleasable",
      "outputs": [
        {
          "internalType": "uint256",
          "name": "totalReleasable",
          "type": "uint256"
        }
      ],
      "stateMutability": "view",
      "type": "function"
    },
    {
      "inputs": [
        {
          "internalType": "address",
          "name": "token",
          "type": "address"
        }
      ],
      "name": "getTotalReleased",
      "outputs": [
        {
          "internalType": "uint256",
          "name": "totalReleased",
          "type": "uint256"
        }
      ],
      "stateMutability": "view",
      "type": "function"
    },
    {
      "inputs": [
        {
          "internalType": "address",
          "name": "token",
          "type": "address"
        }
      ],
      "name": "getTotalVested",
      "outputs": [
        {
          "internalType": "uint256",
          "name": "totalVested",
          "type": "uint256"
        }
      ],
      "stateMutability": "view",
      "type": "function"
    },
    {
      "inputs": [],
      "name": "getVestingContractCount",
      "outputs": [
        {
          "internalType": "uint256",
          "name": "count",
          "type": "uint256"
        }
      ],
      "stateMutability": "view",
      "type": "function"
    },
    {
      "inputs": [
        {
          "internalType": "address",
          "name": "contractAddress",
          "type": "address"
        }
      ],
      "name": "getVestingContractInfo",
      "outputs": [
        {
          "internalType": "address",
          "name": "beneficiary",
          "type": "address"
        },
        {
          "internalType": "address",
          "name": "token",
          "type": "address"
        },
        {
          "internalType": "uint256",
          "name": "totalAllocation",
          "type": "uint256"
        },
        {
          "internalType": "uint256",
          "name": "vested",
          "type": "uint256"
        },
        {
          "internalType": "uint256",
          "name": "releasable",
          "type": "uint256"
        },
        {
          "internalType": "uint256",
          "name": "released",
          "type": "uint256"
        }
      ],
      "stateMutability": "view",
      "type": "function"
    },
    {
      "inputs": [
        {
          "internalType": "address",
          "name": "token",
          "type": "address"
        }
      ],
      "name": "getVestingOverview",
      "outputs": [
        {
          "internalType": "uint256",
          "name": "totalLocked",
          "type": "uint256"
        },
        {
          "internalType": "uint256",
          "name": "totalVested",
          "type": "uint256"
        },
        {
          "internalType": "uint256",
          "name": "totalReleasable",
          "type": "uint256"
        },
        {
          "internalType": "uint256",
          "name": "totalReleased",
          "type": "uint256"
        }
      ],
      "stateMutability": "view",
      "type": "function"
    },
    {
      "inputs": [
        {
          "internalType": "address",
          "name": "",
          "type": "address"
        }
      ],
      "name": "isRegistered",
      "outputs": [
        {
          "internalType": "bool",
          "name": "",
          "type": "bool"
        }
      ],
      "stateMutability": "view",
      "type": "function"
    },
    {
      "inputs": [],
      "name": "owner",
      "outputs": [
        {
          "internalType": "address",
          "name": "",
          "type": "address"
        }
      ],
      "stateMutability": "view",
      "type": "function"
    },
    {
      "inputs": [
        {
          "internalType": "address",
          "name": "contractAddress",
          "type": "address"
        }
      ],
      "name": "registerVestingContract",
      "outputs": [],
      "stateMutability": "nonpayable",
      "type": "function"
    },
    {
      "inputs": [
        {
          "internalType": "address",
          "name": "contractAddress",
          "type": "address"
        }
      ],
      "name": "removeVestingContract",
      "outputs": [],
      "stateMutability": "nonpayable",
      "type": "function"
    },
    {
      "inputs": [],
      "name": "renounceOwnership",
      "outputs": [],
      "stateMutability": "nonpayable",
      "type": "function"
    },
    {
      "inputs": [
        {
          "internalType": "address",
          "name": "",
          "type": "address"
        },
        {
          "internalType": "uint256",
          "name": "",
          "type": "uint256"
        }
      ],
      "name": "tokenContracts",
      "outputs": [
        {
          "internalType": "address",
          "name": "",
          "type": "address"
        }
      ],
      "stateMutability": "view",
      "type": "function"
    },
    {
      "inputs": [
        {
          "internalType": "address",
          "name": "newOwner",
          "type": "address"
        }
      ],
      "name": "transferOwnership",
      "outputs": [],
      "stateMutability": "nonpayable",
      "type": "function"
    },
    {
      "inputs": [
        {
          "internalType": "uint256",
          "name": "",
          "type": "uint256"
        }
      ],
      "name": "vestingContracts",
      "outputs": [
        {
          "internalType": "address",
          "name": "",
          "type": "address"
        }
      ],
      "stateMutability": "view",
      "type": "function"
    }
  ],
  "bytecode": "0x60806040523480156200001157600080fd5b5060405162005898380380620058988339818101604052810190620000379190620009a1565b620000576200004b6200013460201b60201c565b6200013c60201b60201c565b600073ffffffffffffffffffffffffffffffffffffffff168273ffffffffffffffffffffffffffffffffffffffff1603620000c9576040517f08c379a0000000000000000000000000000000000000000000000000000000008152600401620000c09062000a8e565b60405180910390fd5b620000da826200013c60201b60201c565b60005b81518110156200012b576200011582828151811062000101576200010062000ab0565b5b60200260200101516200020060201b60201c565b8080620001229062000b18565b915050620000dd565b50505062000e41565b600033905090565b60008060009054906101000a900473ffffffffffffffffffffffffffffffffffffffff169050816000806101000a81548173ffffffffffffffffffffffffffffffffffffffff021916908373ffffffffffffffffffffffffffffffffffffffff1602179055508173ffffffffffffffffffffffffffffffffffffffff168173ffffffffffffffffffffffffffffffffffffffff167f8be0079c531659141344cd1fd0a4f28419497f9722a3daafe3b4186f6b6457e060405160405180910390a35050565b62000210620006f960201b60201c565b600073ffffffffffffffffffffffffffffffffffffffff168173ffffffffffffffffffffffffffffffffffffffff160362000282576040517f08c379a0000000000000000000000000000000000000000000000000000000008152600401620002799062000bdb565b60405180910390fd5b600260008273ffffffffffffffffffffffffffffffffffffffff1673ffffffffffffffffffffffffffffffffffffffff16815260200190815260200160002060009054906101000a900460ff161562000312576040517f08c379a0000000000000000000000000000000000000000000000000000000008152600401620003099062000c73565b60405180910390fd5b600081905060008173ffffffffffffffffffffffffffffffffffffffff166338af3eed6040518163ffffffff1660e01b8152600401602060405180830381865afa15801562000365573d6000803e3d6000fd5b505050506040513d601f19601f820116820180604052508101906200038b919062000c95565b905060008273ffffffffffffffffffffffffffffffffffffffff166319d152fa6040518163ffffffff1660e01b8152600401602060405180830381865afa158015620003db573d6000803e3d6000fd5b505050506040513d601f19601f8201168201806040525081019062000401919062000d0c565b905060008373ffffffffffffffffffffffffffffffffffffffff166379203dc46040518163ffffffff1660e01b8152600401602060405180830381865afa15801562000451573d6000803e3d6000fd5b505050506040513d601f19601f8201168201806040525081019062000477919062000d6f565b90506001600260008773ffffffffffffffffffffffffffffffffffffffff1673ffffffffffffffffffffffffffffffffffffffff16815260200190815260200160002060006101000a81548160ff0219169083151502179055506001859080600181540180825580915050600190039060005260206000200160009091909190916101000a81548173ffffffffffffffffffffffffffffffffffffffff021916908373ffffffffffffffffffffffffffffffffffffffff160217905550600360008473ffffffffffffffffffffffffffffffffffffffff1673ffffffffffffffffffffffffffffffffffffffff168152602001908152602001600020859080600181540180825580915050600190039060005260206000200160009091909190916101000a81548173ffffffffffffffffffffffffffffffffffffffff021916908373ffffffffffffffffffffffffffffffffffffffff160217905550600460008373ffffffffffffffffffffffffffffffffffffffff1673ffffffffffffffffffffffffffffffffffffffff168152602001908152602001600020859080600181540180825580915050600190039060005260206000200160009091909190916101000a81548173ffffffffffffffffffffffffffffffffffffffff021916908373ffffffffffffffffffffffffffffffffffffffff1602179055508173ffffffffffffffffffffffffffffffffffffffff168373ffffffffffffffffffffffffffffffffffffffff168673ffffffffffffffffffffffffffffffffffffffff167f155a99e09c767ffe8f42d64c5f7a65d4e63f1f3d8a813641b16be198cd7c814384604051620006ea919062000db2565b60405180910390a45050505050565b620007096200013460201b60201c565b73ffffffffffffffffffffffffffffffffffffffff166200072f6200078a60201b60201c565b73ffffffffffffffffffffffffffffffffffffffff161462000788576040517f08c379a00000000000000000000000000000000000000000000000000000000081526004016200077f9062000e1f565b60405180910390fd5b565b60008060009054906101000a900473ffffffffffffffffffffffffffffffffffffffff16905090565b6000604051905090565b600080fd5b600080fd5b600073ffffffffffffffffffffffffffffffffffffffff82169050919050565b6000620007f482620007c7565b9050919050565b6200080681620007e7565b81146200081257600080fd5b50565b6000815190506200082681620007fb565b92915050565b600080fd5b6000601f19601f8301169050919050565b7f4e487b7100000000000000000000000000000000000000000000000000000000600052604160045260246000fd5b6200087c8262000831565b810181811067ffffffffffffffff821117156200089e576200089d62000842565b5b80604052505050565b6000620008b3620007b3565b9050620008c1828262000871565b919050565b600067ffffffffffffffff821115620008e457620008e362000842565b5b602082029050602081019050919050565b600080fd5b6000620009116200090b84620008c6565b620008a7565b90508083825260208201905060208402830185811115620009375762000936620008f5565b5b835b818110156200096457806200094f888262000815565b84526020840193505060208101905062000939565b5050509392505050565b600082601f8301126200098657620009856200082c565b5b815162000998848260208601620008fa565b91505092915050565b60008060408385031215620009bb57620009ba620007bd565b5b6000620009cb8582860162000815565b925050602083015167ffffffffffffffff811115620009ef57620009ee620007c2565b5b620009fd858286016200096e565b9150509250929050565b600082825260208201905092915050565b7f56657374696e674d616e616765723a20696e697469616c206f776e657220697360008201527f207a65726f206164647265737300000000000000000000000000000000000000602082015250565b600062000a76602d8362000a07565b915062000a838262000a18565b604082019050919050565b6000602082019050818103600083015262000aa98162000a67565b9050919050565b7f4e487b7100000000000000000000000000000000000000000000000000000000600052603260045260246000fd5b7f4e487b7100000000000000000000000000000000000000000000000000000000600052601160045260246000fd5b6000819050919050565b600062000b258262000b0e565b91507fffffffffffffffffffffffffffffffffffffffffffffffffffffffffffffffff820362000b5a5762000b5962000adf565b5b600182019050919050565b7f56657374696e674d616e616765723a20636f6e7472616374206164647265737360008201527f206973207a65726f000000000000000000000000000000000000000000000000602082015250565b600062000bc360288362000a07565b915062000bd08262000b65565b604082019050919050565b6000602082019050818103600083015262000bf68162000bb4565b9050919050565b7f56657374696e674d616e616765723a20636f6e747261637420616c726561647960008201527f2072656769737465726564000000000000000000000000000000000000000000602082015250565b600062000c5b602b8362000a07565b915062000c688262000bfd565b604082019050919050565b6000602082019050818103600083015262000c8e8162000c4c565b9050919050565b60006020828403121562000cae5762000cad620007bd565b5b600062000cbe8482850162000815565b91505092915050565b600062000cd482620007e7565b9050919050565b62000ce68162000cc7565b811462000cf257600080fd5b50565b60008151905062000d068162000cdb565b92915050565b60006020828403121562000d255762000d24620007bd565b5b600062000d358482850162000cf5565b91505092915050565b62000d498162000b0e565b811462000d5557600080fd5b50565b60008151905062000d698162000d3e565b92915050565b60006020828403121562000d885762000d87620007bd565b5b600062000d988482850162000d58565b91505092915050565b62000dac8162000b0e565b82525050565b600060208201905062000dc9600083018462000da1565b92915050565b7f4f776e61626c653a2063616c6c6572206973206e6f7420746865206f776e6572600082015250565b600062000e0760208362000a07565b915062000e148262000dcf565b602082019050919050565b6000602082019050818103600083015262000e3a8162000df8565b9050919050565b614a478062000e516000396000f3fe608060405234801561001057600080fd5b50600436106101425760003560e01c80638da5cb5b116100b8578063c3c5a5471161007c578063c3c5a547146103d4578063cb919dce14610404578063d46ccee614610434578063d7a05ce814610464578063f2fde38b14610494578063f6a8adc3146104b057610142565b80638da5cb5b146103185780639303547314610336578063acb7c45014610366578063bc3bea5e1461039c578063c211afa9146103b857610142565b80634a6b32ce1161010a5780634a6b32ce1461022a57806350c3cd151461024857806358281bf31461027b57806358f9e675146102ab5780636cf0676d146102de578063715018a61461030e57610142565b806305c77a3c146101475780630714f6ee1461017757806319e9e4cd146101a7578063448a25cf146101d757806348a48cd21461020c575b600080fd5b610161600480360381019061015c9190613eb1565b6104e1565b60405161016e9190613ef7565b60405180910390f35b610191600480360381019061018c9190613eb1565b61078a565b60405161019e9190613ef7565b60405180910390f35b6101c160048036038101906101bc9190613eb1565b610abd565b6040516101ce9190613fd0565b60405180910390f35b6101f160048036038101906101ec9190613eb1565b610b8a565b60405161020396959493929190614001565b60405180910390f35b610214610eea565b6040516102219190613ef7565b60405180910390f35b610232610ef7565b60405161023f9190613fd0565b60405180910390f35b610262600480360381019061025d9190614062565b610f85565b60405161027294939291906140a2565b60405180910390f35b61029560048036038101906102909190614113565b61138d565b6040516102a29190614140565b60405180910390f35b6102c560048036038101906102c09190613eb1565b6113cc565b6040516102d594939291906140a2565b60405180910390f35b6102f860048036038101906102f3919061415b565b611a04565b6040516103059190614140565b60405180910390f35b610316611a52565b005b610320611a66565b60405161032d9190614140565b60405180910390f35b610350600480360381019061034b9190613eb1565b611a8f565b60405161035d9190613ef7565b60405180910390f35b610380600480360381019061037b9190613eb1565b611d4e565b6040516103939796959493929190614259565b60405180910390f35b6103b660048036038101906103b19190613eb1565b612576565b005b6103d260048036038101906103cd9190613eb1565b612ce5565b005b6103ee60048036038101906103e99190613eb1565b6131c5565b6040516103fb9190614314565b60405180910390f35b61041e60048036038101906104199190613eb1565b6131e5565b60405161042b9190613fd0565b60405180910390f35b61044e6004803603810190610449919061415b565b6132b2565b60405161045b9190614140565b60405180910390f35b61047e60048036038101906104799190613eb1565b613300565b60405161048b9190613ef7565b60405180910390f35b6104ae60048036038101906104a99190613eb1565b6135a9565b005b6104ca60048036038101906104c59190613eb1565b61362c565b6040516104d89291906144c1565b60405180910390f35b60008073ffffffffffffffffffffffffffffffffffffffff168273ffffffffffffffffffffffffffffffffffffffff16036105ff5760005b6001805490508110156105f95760006001828154811061053c5761053b6144f1565b5b9060005260206000200160009054906101000a900473ffffffffffffffffffffffffffffffffffffffff1690508073ffffffffffffffffffffffffffffffffffffffff166379203dc46040518163ffffffff1660e01b8152600401602060405180830381865afa1580156105b4573d6000803e3d6000fd5b505050506040513d601f19601f820116820180604052508101906105d89190614535565b836105e39190614591565b92505080806105f1906145c5565b915050610519565b50610785565b6000600460008473ffffffffffffffffffffffffffffffffffffffff1673ffffffffffffffffffffffffffffffffffffffff1681526020019081526020016000208054806020026020016040519081016040528092919081815260200182805480156106c057602002820191906000526020600020905b8160009054906101000a900473ffffffffffffffffffffffffffffffffffffffff1673ffffffffffffffffffffffffffffffffffffffff1681526020019060010190808311610676575b5050505050905060005b81518110156107825760008282815181106106e8576106e76144f1565b5b602002602001015190508073ffffffffffffffffffffffffffffffffffffffff166379203dc46040518163ffffffff1660e01b8152600401602060405180830381865afa15801561073d573d6000803e3d6000fd5b505050506040513d601f19601f820116820180604052508101906107619190614535565b8461076c9190614591565b935050808061077a906145c5565b9150506106ca565b50505b919050565b60008073ffffffffffffffffffffffffffffffffffffffff168273ffffffffffffffffffffffffffffffffffffffff16036109275760005b600180549050811015610921576000600182815481106107e5576107e46144f1565b5b9060005260206000200160009054906101000a900473ffffffffffffffffffffffffffffffffffffffff16905060008173ffffffffffffffffffffffffffffffffffffffff166319d152fa6040518163ffffffff1660e01b8152600401602060405180830381865afa15801561085f573d6000803e3d6000fd5b505050506040513d601f19601f82011682018060405250810190610883919061464b565b90508173ffffffffffffffffffffffffffffffffffffffff16639852595c826040518263ffffffff1660e01b81526004016108be9190614140565b602060405180830381865afa1580156108db573d6000803e3d6000fd5b505050506040513d601f19601f820116820180604052508101906108ff9190614535565b8461090a9190614591565b935050508080610919906145c5565b9150506107c2565b50610ab8565b6000600460008473ffffffffffffffffffffffffffffffffffffffff1673ffffffffffffffffffffffffffffffffffffffff1681526020019081526020016000208054806020026020016040519081016040528092919081815260200182805480156109e857602002820191906000526020600020905b8160009054906101000a900473ffffffffffffffffffffffffffffffffffffffff1673ffffffffffffffffffffffffffffffffffffffff168152602001906001019080831161099e575b5050505050905060005b8151811015610ab5576000828281518110610a1057610a0f6144f1565b5b602002602001015190508073ffffffffffffffffffffffffffffffffffffffff16639852595c866040518263ffffffff1660e01b8152600401610a539190614140565b602060405180830381865afa158015610a70573d6000803e3d6000fd5b505050506040513d601f19601f82011682018060405250810190610a949190614535565b84610a9f9190614591565b9350508080610aad906145c5565b9150506109f2565b50505b919050565b6060600460008373ffffffffffffffffffffffffffffffffffffffff1673ffffffffffffffffffffffffffffffffffffffff168152602001908152602001600020805480602002602001604051908101604052809291908181526020018280548015610b7e57602002820191906000526020600020905b8160009054906101000a900473ffffffffffffffffffffffffffffffffffffffff1673ffffffffffffffffffffffffffffffffffffffff1681526020019060010190808311610b34575b50505050509050919050565b600080600080600080600260008873ffffffffffffffffffffffffffffffffffffffff1673ffffffffffffffffffffffffffffffffffffffff16815260200190815260200160002060009054906101000a900460ff16610c1f576040517f08c379a0000000000000000000000000000000000000000000000000000000008152600401610c16906146fb565b60405180910390fd5b60008790508073ffffffffffffffffffffffffffffffffffffffff166338af3eed6040518163ffffffff1660e01b8152600401602060405180830381865afa158015610c6f573d6000803e3d6000fd5b505050506040513d601f19601f82011682018060405250810190610c939190614730565b96508073ffffffffffffffffffffffffffffffffffffffff166319d152fa6040518163ffffffff1660e01b8152600401602060405180830381865afa158015610ce0573d6000803e3d6000fd5b505050506040513d601f19601f82011682018060405250810190610d04919061464b565b95508073ffffffffffffffffffffffffffffffffffffffff166379203dc46040518163ffffffff1660e01b8152600401602060405180830381865afa158015610d51573d6000803e3d6000fd5b505050506040513d601f19601f82011682018060405250810190610d759190614535565b94508073ffffffffffffffffffffffffffffffffffffffff1663cafeedf6426040518263ffffffff1660e01b8152600401610db09190613ef7565b602060405180830381865afa158015610dcd573d6000803e3d6000fd5b505050506040513d601f19601f82011682018060405250810190610df19190614535565b93508073ffffffffffffffffffffffffffffffffffffffff16638401b9686040518163ffffffff1660e01b8152600401602060405180830381865afa158015610e3e573d6000803e3d6000fd5b505050506040513d601f19601f82011682018060405250810190610e629190614535565b92508073ffffffffffffffffffffffffffffffffffffffff16639852595c876040518263ffffffff1660e01b8152600401610e9d9190614140565b602060405180830381865afa158015610eba573d6000803e3d6000fd5b505050506040513d601f19601f82011682018060405250810190610ede9190614535565b91505091939550919395565b6000600180549050905090565b60606001805480602002602001604051908101604052809291908181526020018280548015610f7b57602002820191906000526020600020905b8160009054906101000a900473ffffffffffffffffffffffffffffffffffffffff1673ffffffffffffffffffffffffffffffffffffffff1681526020019060010190808311610f31575b5050505050905090565b6000806000806000600360008873ffffffffffffffffffffffffffffffffffffffff1673ffffffffffffffffffffffffffffffffffffffff16815260200190815260200160002080548060200260200160405190810160405280929190818152602001828054801561104c57602002820191906000526020600020905b8160009054906101000a900473ffffffffffffffffffffffffffffffffffffffff1673ffffffffffffffffffffffffffffffffffffffff1681526020019060010190808311611002575b5050505050905060005b8151811015611382576000828281518110611074576110736144f1565b5b6020026020010151905060008173ffffffffffffffffffffffffffffffffffffffff166319d152fa6040518163ffffffff1660e01b8152600401602060405180830381865afa1580156110cb573d6000803e3d6000fd5b505050506040513d601f19601f820116820180604052508101906110ef919061464b565b9050600073ffffffffffffffffffffffffffffffffffffffff168973ffffffffffffffffffffffffffffffffffffffff161415801561115a57508873ffffffffffffffffffffffffffffffffffffffff168173ffffffffffffffffffffffffffffffffffffffff1614155b1561116657505061136f565b8173ffffffffffffffffffffffffffffffffffffffff166379203dc46040518163ffffffff1660e01b8152600401602060405180830381865afa1580156111b1573d6000803e3d6000fd5b505050506040513d601f19601f820116820180604052508101906111d59190614535565b886111e09190614591565b97508173ffffffffffffffffffffffffffffffffffffffff1663cafeedf6426040518263ffffffff1660e01b815260040161121b9190613ef7565b602060405180830381865afa158015611238573d6000803e3d6000fd5b505050506040513d601f19601f8201168201806040525081019061125c9190614535565b876112679190614591565b96508173ffffffffffffffffffffffffffffffffffffffff16638401b9686040518163ffffffff1660e01b8152600401602060405180830381865afa1580156112b4573d6000803e3d6000fd5b505050506040513d601f19601f820116820180604052508101906112d89190614535565b866112e39190614591565b95508173ffffffffffffffffffffffffffffffffffffffff16639852595c826040518263ffffffff1660e01b815260040161131e9190614140565b602060405180830381865afa15801561133b573d6000803e3d6000fd5b505050506040513d601f19601f8201168201806040525081019061135f9190614535565b8561136a9190614591565b945050505b808061137a906145c5565b915050611056565b505092959194509250565b6001818154811061139d57600080fd5b906000526020600020016000915054906101000a900473ffffffffffffffffffffffffffffffffffffffff1681565b600080600080600073ffffffffffffffffffffffffffffffffffffffff168573ffffffffffffffffffffffffffffffffffffffff16036116ed5760005b6001805490508110156116e75760006001828154811061142c5761142b6144f1565b5b9060005260206000200160009054906101000a900473ffffffffffffffffffffffffffffffffffffffff16905060008173ffffffffffffffffffffffffffffffffffffffff166319d152fa6040518163ffffffff1660e01b8152600401602060405180830381865afa1580156114a6573d6000803e3d6000fd5b505050506040513d601f19601f820116820180604052508101906114ca919061464b565b90508173ffffffffffffffffffffffffffffffffffffffff166379203dc46040518163ffffffff1660e01b8152600401602060405180830381865afa158015611517573d6000803e3d6000fd5b505050506040513d601f19601f8201168201806040525081019061153b9190614535565b876115469190614591565b96508173ffffffffffffffffffffffffffffffffffffffff1663cafeedf6426040518263ffffffff1660e01b81526004016115819190613ef7565b602060405180830381865afa15801561159e573d6000803e3d6000fd5b505050506040513d601f19601f820116820180604052508101906115c29190614535565b866115cd9190614591565b95508173ffffffffffffffffffffffffffffffffffffffff16638401b9686040518163ffffffff1660e01b8152600401602060405180830381865afa15801561161a573d6000803e3d6000fd5b505050506040513d601f19601f8201168201806040525081019061163e9190614535565b856116499190614591565b94508173ffffffffffffffffffffffffffffffffffffffff16639852595c826040518263ffffffff1660e01b81526004016116849190614140565b602060405180830381865afa1580156116a1573d6000803e3d6000fd5b505050506040513d601f19601f820116820180604052508101906116c59190614535565b846116d09190614591565b9350505080806116df906145c5565b915050611409565b506119fd565b6000600460008773ffffffffffffffffffffffffffffffffffffffff1673ffffffffffffffffffffffffffffffffffffffff1681526020019081526020016000208054806020026020016040519081016040528092919081815260200182805480156117ae57602002820191906000526020600020905b8160009054906101000a900473ffffffffffffffffffffffffffffffffffffffff1673ffffffffffffffffffffffffffffffffffffffff1681526020019060010190808311611764575b5050505050905060005b81518110156119fa5760008282815181106117d6576117d56144f1565b5b602002602001015190508073ffffffffffffffffffffffffffffffffffffffff166379203dc46040518163ffffffff1660e01b8152600401602060405180830381865afa15801561182b573d6000803e3d6000fd5b505050506040513d601f19601f8201168201806040525081019061184f9190614535565b8761185a9190614591565b96508073ffffffffffffffffffffffffffffffffffffffff1663cafeedf6426040518263ffffffff1660e01b81526004016118959190613ef7565b602060405180830381865afa1580156118b2573d6000803e3d6000fd5b505050506040513d601f19601f820116820180604052508101906118d69190614535565b866118e19190614591565b95508073ffffffffffffffffffffffffffffffffffffffff16638401b9686040518163ffffffff1660e01b8152600401602060405180830381865afa15801561192e573d6000803e3d6000fd5b505050506040513d601f19601f820116820180604052508101906119529190614535565b8561195d9190614591565b94508073ffffffffffffffffffffffffffffffffffffffff16639852595c896040518263ffffffff1660e01b81526004016119989190614140565b602060405180830381865afa1580156119b5573d6000803e3d6000fd5b505050506040513d601f19601f820116820180604052508101906119d99190614535565b846119e49190614591565b93505080806119f2906145c5565b9150506117b8565b50505b9193509193565b60036020528160005260406000208181548110611a2057600080fd5b906000526020600020016000915091509054906101000a900473ffffffffffffffffffffffffffffffffffffffff1681565b611a5a613c5d565b611a646000613cdb565b565b60008060009054906101000a900473ffffffffffffffffffffffffffffffffffffffff16905090565b60008073ffffffffffffffffffffffffffffffffffffffff168273ffffffffffffffffffffffffffffffffffffffff1603611bb85760005b600180549050811015611bb257600060018281548110611aea57611ae96144f1565b5b9060005260206000200160009054906101000a900473ffffffffffffffffffffffffffffffffffffffff1690508073ffffffffffffffffffffffffffffffffffffffff1663cafeedf6426040518263ffffffff1660e01b8152600401611b509190613ef7565b602060405180830381865afa158015611b6d573d6000803e3d6000fd5b505050506040513d601f19601f82011682018060405250810190611b919190614535565b83611b9c9190614591565b9250508080611baa906145c5565b915050611ac7565b50611d49565b6000600460008473ffffffffffffffffffffffffffffffffffffffff1673ffffffffffffffffffffffffffffffffffffffff168152602001908152602001600020805480602002602001604051908101604052809291908181526020018280548015611c7957602002820191906000526020600020905b8160009054906101000a900473ffffffffffffffffffffffffffffffffffffffff1673ffffffffffffffffffffffffffffffffffffffff1681526020019060010190808311611c2f575b5050505050905060005b8151811015611d46576000828281518110611ca157611ca06144f1565b5b602002602001015190508073ffffffffffffffffffffffffffffffffffffffff1663cafeedf6426040518263ffffffff1660e01b8152600401611ce49190613ef7565b602060405180830381865afa158015611d01573d6000803e3d6000fd5b505050506040513d601f19601f82011682018060405250810190611d259190614535565b84611d309190614591565b9350508080611d3e906145c5565b915050611c83565b50505b919050565b606080606080606080606080600073ffffffffffffffffffffffffffffffffffffffff168973ffffffffffffffffffffffffffffffffffffffff1603611e1c576001805480602002602001604051908101604052809291908181526020018280548015611e1057602002820191906000526020600020905b8160009054906101000a900473ffffffffffffffffffffffffffffffffffffffff1673ffffffffffffffffffffffffffffffffffffffff1681526020019060010190808311611dc6575b50505050509050611ee3565b600460008a73ffffffffffffffffffffffffffffffffffffffff1673ffffffffffffffffffffffffffffffffffffffff168152602001908152602001600020805480602002602001604051908101604052809291908181526020018280548015611edb57602002820191906000526020600020905b8160009054906101000a900473ffffffffffffffffffffffffffffffffffffffff1673ffffffffffffffffffffffffffffffffffffffff1681526020019060010190808311611e91575b505050505090505b6000815190508067ffffffffffffffff811115611f0357611f0261475d565b5b604051908082528060200260200182016040528015611f315781602001602082028036833780820191505090505b5098508067ffffffffffffffff811115611f4e57611f4d61475d565b5b604051908082528060200260200182016040528015611f7c5781602001602082028036833780820191505090505b5097508067ffffffffffffffff811115611f9957611f9861475d565b5b604051908082528060200260200182016040528015611fc75781602001602082028036833780820191505090505b5096508067ffffffffffffffff811115611fe457611fe361475d565b5b6040519080825280602002602001820160405280156120125781602001602082028036833780820191505090505b5095508067ffffffffffffffff81111561202f5761202e61475d565b5b60405190808252806020026020018201604052801561205d5781602001602082028036833780820191505090505b5094508067ffffffffffffffff81111561207a5761207961475d565b5b6040519080825280602002602001820160405280156120a85781602001602082028036833780820191505090505b5093508067ffffffffffffffff8111156120c5576120c461475d565b5b6040519080825280602002602001820160405280156120f35781602001602082028036833780820191505090505b50925060005b81811015612568576000838281518110612116576121156144f1565b5b6020026020010151905060008173ffffffffffffffffffffffffffffffffffffffff166319d152fa6040518163ffffffff1660e01b8152600401602060405180830381865afa15801561216d573d6000803e3d6000fd5b505050506040513d601f19601f82011682018060405250810190612191919061464b565b90508483815181106121a6576121a56144f1565b5b60200260200101518c84815181106121c1576121c06144f1565b5b602002602001019073ffffffffffffffffffffffffffffffffffffffff16908173ffffffffffffffffffffffffffffffffffffffff16815250508173ffffffffffffffffffffffffffffffffffffffff166338af3eed6040518163ffffffff1660e01b8152600401602060405180830381865afa158015612246573d6000803e3d6000fd5b505050506040513d601f19601f8201168201806040525081019061226a9190614730565b8b848151811061227d5761227c6144f1565b5b602002602001019073ffffffffffffffffffffffffffffffffffffffff16908173ffffffffffffffffffffffffffffffffffffffff1681525050808a84815181106122cb576122ca6144f1565b5b602002602001019073ffffffffffffffffffffffffffffffffffffffff16908173ffffffffffffffffffffffffffffffffffffffff16815250508173ffffffffffffffffffffffffffffffffffffffff166379203dc46040518163ffffffff1660e01b8152600401602060405180830381865afa158015612350573d6000803e3d6000fd5b505050506040513d601f19601f820116820180604052508101906123749190614535565b898481518110612387576123866144f1565b5b6020026020010181815250508173ffffffffffffffffffffffffffffffffffffffff1663cafeedf6426040518263ffffffff1660e01b81526004016123cc9190613ef7565b602060405180830381865afa1580156123e9573d6000803e3d6000fd5b505050506040513d601f19601f8201168201806040525081019061240d9190614535565b8884815181106124205761241f6144f1565b5b6020026020010181815250508173ffffffffffffffffffffffffffffffffffffffff16638401b9686040518163ffffffff1660e01b8152600401602060405180830381865afa158015612477573d6000803e3d6000fd5b505050506040513d601f19601f8201168201806040525081019061249b9190614535565b8784815181106124ae576124ad6144f1565b5b6020026020010181815250508173ffffffffffffffffffffffffffffffffffffffff16639852595c826040518263ffffffff1660e01b81526004016124f39190614140565b602060405180830381865afa158015612510573d6000803e3d6000fd5b505050506040513d601f19601f820116820180604052508101906125349190614535565b868481518110612547576125466144f1565b5b60200260200101818152505050508080612560906145c5565b9150506120f9565b505050919395979092949650565b61257e613c5d565b600260008273ffffffffffffffffffffffffffffffffffffffff1673ffffffffffffffffffffffffffffffffffffffff16815260200190815260200160002060009054906101000a900460ff1661260a576040517f08c379a0000000000000000000000000000000000000000000000000000000008152600401612601906146fb565b60405180910390fd5b600081905060008173ffffffffffffffffffffffffffffffffffffffff166338af3eed6040518163ffffffff1660e01b8152600401602060405180830381865afa15801561265c573d6000803e3d6000fd5b505050506040513d601f19601f820116820180604052508101906126809190614730565b905060008273ffffffffffffffffffffffffffffffffffffffff166319d152fa6040518163ffffffff1660e01b8152600401602060405180830381865afa1580156126cf573d6000803e3d6000fd5b505050506040513d601f19601f820116820180604052508101906126f3919061464b565b905060005b60018054905081101561287f578473ffffffffffffffffffffffffffffffffffffffff16600182815481106127305761272f6144f1565b5b9060005260206000200160009054906101000a900473ffffffffffffffffffffffffffffffffffffffff1673ffffffffffffffffffffffffffffffffffffffff160361286c576001808080549050612788919061478c565b81548110612799576127986144f1565b5b9060005260206000200160009054906101000a900473ffffffffffffffffffffffffffffffffffffffff16600182815481106127d8576127d76144f1565b5b9060005260206000200160006101000a81548173ffffffffffffffffffffffffffffffffffffffff021916908373ffffffffffffffffffffffffffffffffffffffff1602179055506001805480612832576128316147c0565b5b6001900381819060005260206000200160006101000a81549073ffffffffffffffffffffffffffffffffffffffff0219169055905561287f565b8080612877906145c5565b9150506126f8565b506000600360008473ffffffffffffffffffffffffffffffffffffffff1673ffffffffffffffffffffffffffffffffffffffff168152602001908152602001600020905060005b8180549050811015612a49578573ffffffffffffffffffffffffffffffffffffffff168282815481106128fc576128fb6144f1565b5b9060005260206000200160009054906101000a900473ffffffffffffffffffffffffffffffffffffffff1673ffffffffffffffffffffffffffffffffffffffff1603612a36578160018380549050612954919061478c565b81548110612965576129646144f1565b5b9060005260206000200160009054906101000a900473ffffffffffffffffffffffffffffffffffffffff168282815481106129a3576129a26144f1565b5b9060005260206000200160006101000a81548173ffffffffffffffffffffffffffffffffffffffff021916908373ffffffffffffffffffffffffffffffffffffffff160217905550818054806129fc576129fb6147c0565b5b6001900381819060005260206000200160006101000a81549073ffffffffffffffffffffffffffffffffffffffff02191690559055612a49565b8080612a41906145c5565b9150506128c6565b506000600460008473ffffffffffffffffffffffffffffffffffffffff1673ffffffffffffffffffffffffffffffffffffffff168152602001908152602001600020905060005b8180549050811015612c13578673ffffffffffffffffffffffffffffffffffffffff16828281548110612ac657612ac56144f1565b5b9060005260206000200160009054906101000a900473ffffffffffffffffffffffffffffffffffffffff1673ffffffffffffffffffffffffffffffffffffffff1603612c00578160018380549050612b1e919061478c565b81548110612b2f57612b2e6144f1565b5b9060005260206000200160009054906101000a900473ffffffffffffffffffffffffffffffffffffffff16828281548110612b6d57612b6c6144f1565b5b9060005260206000200160006101000a81548173ffffffffffffffffffffffffffffffffffffffff021916908373ffffffffffffffffffffffffffffffffffffffff16021790555081805480612bc657612bc56147c0565b5b6001900381819060005260206000200160006101000a81549073ffffffffffffffffffffffffffffffffffffffff02191690559055612c13565b8080612c0b906145c5565b915050612a90565b506000600260008873ffffffffffffffffffffffffffffffffffffffff1673ffffffffffffffffffffffffffffffffffffffff16815260200190815260200160002060006101000a81548160ff0219169083151502179055508273ffffffffffffffffffffffffffffffffffffffff168473ffffffffffffffffffffffffffffffffffffffff168773ffffffffffffffffffffffffffffffffffffffff167faad6f62d4e1065617417a713540e760ee3da190adfc72e3fea3870f401cd087b60405160405180910390a4505050505050565b612ced613c5d565b600073ffffffffffffffffffffffffffffffffffffffff168173ffffffffffffffffffffffffffffffffffffffff1603612d5c576040517f08c379a0000000000000000000000000000000000000000000000000000000008152600401612d5390614861565b60405180910390fd5b600260008273ffffffffffffffffffffffffffffffffffffffff1673ffffffffffffffffffffffffffffffffffffffff16815260200190815260200160002060009054906101000a900460ff1615612de9576040517f08c379a0000000000000000000000000000000000000000000000000000000008152600401612de0906148f3565b60405180910390fd5b600081905060008173ffffffffffffffffffffffffffffffffffffffff166338af3eed6040518163ffffffff1660e01b8152600401602060405180830381865afa158015612e3b573d6000803e3d6000fd5b505050506040513d601f19601f82011682018060405250810190612e5f9190614730565b905060008273ffffffffffffffffffffffffffffffffffffffff166319d152fa6040518163ffffffff1660e01b8152600401602060405180830381865afa158015612eae573d6000803e3d6000fd5b505050506040513d601f19601f82011682018060405250810190612ed2919061464b565b905060008373ffffffffffffffffffffffffffffffffffffffff166379203dc46040518163ffffffff1660e01b8152600401602060405180830381865afa158015612f21573d6000803e3d6000fd5b505050506040513d601f19601f82011682018060405250810190612f459190614535565b90506001600260008773ffffffffffffffffffffffffffffffffffffffff1673ffffffffffffffffffffffffffffffffffffffff16815260200190815260200160002060006101000a81548160ff0219169083151502179055506001859080600181540180825580915050600190039060005260206000200160009091909190916101000a81548173ffffffffffffffffffffffffffffffffffffffff021916908373ffffffffffffffffffffffffffffffffffffffff160217905550600360008473ffffffffffffffffffffffffffffffffffffffff1673ffffffffffffffffffffffffffffffffffffffff168152602001908152602001600020859080600181540180825580915050600190039060005260206000200160009091909190916101000a81548173ffffffffffffffffffffffffffffffffffffffff021916908373ffffffffffffffffffffffffffffffffffffffff160217905550600460008373ffffffffffffffffffffffffffffffffffffffff1673ffffffffffffffffffffffffffffffffffffffff168152602001908152602001600020859080600181540180825580915050600190039060005260206000200160009091909190916101000a81548173ffffffffffffffffffffffffffffffffffffffff021916908373ffffffffffffffffffffffffffffffffffffffff1602179055508173ffffffffffffffffffffffffffffffffffffffff168373ffffffffffffffffffffffffffffffffffffffff168673ffffffffffffffffffffffffffffffffffffffff167f155a99e09c767ffe8f42d64c5f7a65d4e63f1f3d8a813641b16be198cd7c8143846040516131b69190613ef7565b60405180910390a45050505050565b60026020528060005260406000206000915054906101000a900460ff1681565b6060600360008373ffffffffffffffffffffffffffffffffffffffff1673ffffffffffffffffffffffffffffffffffffffff1681526020019081526020016000208054806020026020016040519081016040528092919081815260200182805480156132a657602002820191906000526020600020905b8160009054906101000a900473ffffffffffffffffffffffffffffffffffffffff1673ffffffffffffffffffffffffffffffffffffffff168152602001906001019080831161325c575b50505050509050919050565b600460205281600052604060002081815481106132ce57600080fd5b906000526020600020016000915091509054906101000a900473ffffffffffffffffffffffffffffffffffffffff1681565b60008073ffffffffffffffffffffffffffffffffffffffff168273ffffffffffffffffffffffffffffffffffffffff160361341e5760005b6001805490508110156134185760006001828154811061335b5761335a6144f1565b5b9060005260206000200160009054906101000a900473ffffffffffffffffffffffffffffffffffffffff1690508073ffffffffffffffffffffffffffffffffffffffff16638401b9686040518163ffffffff1660e01b8152600401602060405180830381865afa1580156133d3573d6000803e3d6000fd5b505050506040513d601f19601f820116820180604052508101906133f79190614535565b836134029190614591565b9250508080613410906145c5565b915050613338565b506135a4565b6000600460008473ffffffffffffffffffffffffffffffffffffffff1673ffffffffffffffffffffffffffffffffffffffff1681526020019081526020016000208054806020026020016040519081016040528092919081815260200182805480156134df57602002820191906000526020600020905b8160009054906101000a900473ffffffffffffffffffffffffffffffffffffffff1673ffffffffffffffffffffffffffffffffffffffff1681526020019060010190808311613495575b5050505050905060005b81518110156135a1576000828281518110613507576135066144f1565b5b602002602001015190508073ffffffffffffffffffffffffffffffffffffffff16638401b9686040518163ffffffff1660e01b8152600401602060405180830381865afa15801561355c573d6000803e3d6000fd5b505050506040513d601f19601f820116820180604052508101906135809190614535565b8461358b9190614591565b9350508080613599906145c5565b9150506134e9565b50505b919050565b6135b1613c5d565b600073ffffffffffffffffffffffffffffffffffffffff168173ffffffffffffffffffffffffffffffffffffffff1603613620576040517f08c379a000000000000000000000000000000000000000000000000000000000815260040161361790614985565b60405180910390fd5b61362981613cdb565b50565b613634613da7565b606080600073ffffffffffffffffffffffffffffffffffffffff168473ffffffffffffffffffffffffffffffffffffffff16036136f95760018054806020026020016040519081016040528092919081815260200182805480156136ed57602002820191906000526020600020905b8160009054906101000a900473ffffffffffffffffffffffffffffffffffffffff1673ffffffffffffffffffffffffffffffffffffffff16815260200190600101908083116136a3575b505050505090506137c0565b600460008573ffffffffffffffffffffffffffffffffffffffff1673ffffffffffffffffffffffffffffffffffffffff1681526020019081526020016000208054806020026020016040519081016040528092919081815260200182805480156137b857602002820191906000526020600020905b8160009054906101000a900473ffffffffffffffffffffffffffffffffffffffff1673ffffffffffffffffffffffffffffffffffffffff168152602001906001019080831161376e575b505050505090505b604051806080016040528060008152602001600081526020016000815260200160008152509250805167ffffffffffffffff8111156138025761380161475d565b5b60405190808252806020026020018201604052801561383b57816020015b613828613dcf565b8152602001906001900390816138205790505b50915060005b8151811015613c5657600082828151811061385f5761385e6144f1565b5b6020026020010151905060008173ffffffffffffffffffffffffffffffffffffffff166319d152fa6040518163ffffffff1660e01b8152600401602060405180830381865afa1580156138b6573d6000803e3d6000fd5b505050506040513d601f19601f820116820180604052508101906138da919061464b565b905060008273ffffffffffffffffffffffffffffffffffffffff166379203dc46040518163ffffffff1660e01b8152600401602060405180830381865afa158015613929573d6000803e3d6000fd5b505050506040513d601f19601f8201168201806040525081019061394d9190614535565b905060008373ffffffffffffffffffffffffffffffffffffffff1663cafeedf6426040518263ffffffff1660e01b815260040161398a9190613ef7565b602060405180830381865afa1580156139a7573d6000803e3d6000fd5b505050506040513d601f19601f820116820180604052508101906139cb9190614535565b905060008473ffffffffffffffffffffffffffffffffffffffff16638401b9686040518163ffffffff1660e01b8152600401602060405180830381865afa158015613a1a573d6000803e3d6000fd5b505050506040513d601f19601f82011682018060405250810190613a3e9190614535565b905060008573ffffffffffffffffffffffffffffffffffffffff16639852595c866040518263ffffffff1660e01b8152600401613a7b9190614140565b602060405180830381865afa158015613a98573d6000803e3d6000fd5b505050506040513d601f19601f82011682018060405250810190613abc9190614535565b9050838a600001818151613ad09190614591565b91508181525050828a602001818151613ae99190614591565b91508181525050818a604001818151613b029190614591565b91508181525050808a606001818151613b1b9190614591565b915081815250506040518060e00160405280898981518110613b4057613b3f6144f1565b5b602002602001015173ffffffffffffffffffffffffffffffffffffffff1681526020018773ffffffffffffffffffffffffffffffffffffffff166338af3eed6040518163ffffffff1660e01b8152600401602060405180830381865afa158015613bae573d6000803e3d6000fd5b505050506040513d601f19601f82011682018060405250810190613bd29190614730565b73ffffffffffffffffffffffffffffffffffffffff1681526020018673ffffffffffffffffffffffffffffffffffffffff16815260200185815260200184815260200183815260200182815250898881518110613c3257613c316144f1565b5b60200260200101819052505050505050508080613c4e906145c5565b915050613841565b5050915091565b613c65613d9f565b73ffffffffffffffffffffffffffffffffffffffff16613c83611a66565b73ffffffffffffffffffffffffffffffffffffffff1614613cd9576040517f08c379a0000000000000000000000000000000000000000000000000000000008152600401613cd0906149f1565b60405180910390fd5b565b60008060009054906101000a900473ffffffffffffffffffffffffffffffffffffffff169050816000806101000a81548173ffffffffffffffffffffffffffffffffffffffff021916908373ffffffffffffffffffffffffffffffffffffffff1602179055508173ffffffffffffffffffffffffffffffffffffffff168173ffffffffffffffffffffffffffffffffffffffff167f8be0079c531659141344cd1fd0a4f28419497f9722a3daafe3b4186f6b6457e060405160405180910390a35050565b600033905090565b6040518060800160405280600081526020016000815260200160008152602001600081525090565b6040518060e00160405280600073ffffffffffffffffffffffffffffffffffffffff168152602001600073ffffffffffffffffffffffffffffffffffffffff168152602001600073ffffffffffffffffffffffffffffffffffffffff168152602001600081526020016000815260200160008152602001600081525090565b600080fd5b600073ffffffffffffffffffffffffffffffffffffffff82169050919050565b6000613e7e82613e53565b9050919050565b613e8e81613e73565b8114613e9957600080fd5b50565b600081359050613eab81613e85565b92915050565b600060208284031215613ec757613ec6613e4e565b5b6000613ed584828501613e9c565b91505092915050565b6000819050919050565b613ef181613ede565b82525050565b6000602082019050613f0c6000830184613ee8565b92915050565b600081519050919050565b600082825260208201905092915050565b6000819050602082019050919050565b613f4781613e73565b82525050565b6000613f598383613f3e565b60208301905092915050565b6000602082019050919050565b6000613f7d82613f12565b613f878185613f1d565b9350613f9283613f2e565b8060005b83811015613fc3578151613faa8882613f4d565b9750613fb583613f65565b925050600181019050613f96565b5085935050505092915050565b60006020820190508181036000830152613fea8184613f72565b905092915050565b613ffb81613e73565b82525050565b600060c0820190506140166000830189613ff2565b6140236020830188613ff2565b6140306040830187613ee8565b61403d6060830186613ee8565b61404a6080830185613ee8565b61405760a0830184613ee8565b979650505050505050565b6000806040838503121561407957614078613e4e565b5b600061408785828601613e9c565b925050602061409885828601613e9c565b9150509250929050565b60006080820190506140b76000830187613ee8565b6140c46020830186613ee8565b6140d16040830185613ee8565b6140de6060830184613ee8565b95945050505050565b6140f081613ede565b81146140fb57600080fd5b50565b60008135905061410d816140e7565b92915050565b60006020828403121561412957614128613e4e565b5b6000614137848285016140fe565b91505092915050565b60006020820190506141556000830184613ff2565b92915050565b6000806040838503121561417257614171613e4e565b5b600061418085828601613e9c565b9250506020614191858286016140fe565b9150509250929050565b600081519050919050565b600082825260208201905092915050565b6000819050602082019050919050565b6141d081613ede565b82525050565b60006141e283836141c7565b60208301905092915050565b6000602082019050919050565b60006142068261419b565b61421081856141a6565b935061421b836141b7565b8060005b8381101561424c57815161423388826141d6565b975061423e836141ee565b92505060018101905061421f565b5085935050505092915050565b600060e0820190508181036000830152614273818a613f72565b905081810360208301526142878189613f72565b9050818103604083015261429b8188613f72565b905081810360608301526142af81876141fb565b905081810360808301526142c381866141fb565b905081810360a08301526142d781856141fb565b905081810360c08301526142eb81846141fb565b905098975050505050505050565b60008115159050919050565b61430e816142f9565b82525050565b60006020820190506143296000830184614305565b92915050565b60808201600082015161434560008501826141c7565b50602082015161435860208501826141c7565b50604082015161436b60408501826141c7565b50606082015161437e60608501826141c7565b50505050565b600081519050919050565b600082825260208201905092915050565b6000819050602082019050919050565b60e0820160008201516143c66000850182613f3e565b5060208201516143d96020850182613f3e565b5060408201516143ec6040850182613f3e565b5060608201516143ff60608501826141c7565b50608082015161441260808501826141c7565b5060a082015161442560a08501826141c7565b5060c082015161443860c08501826141c7565b50505050565b600061444a83836143b0565b60e08301905092915050565b6000602082019050919050565b600061446e82614384565b614478818561438f565b9350614483836143a0565b8060005b838110156144b457815161449b888261443e565b97506144a683614456565b925050600181019050614487565b5085935050505092915050565b600060a0820190506144d6600083018561432f565b81810360808301526144e88184614463565b90509392505050565b7f4e487b7100000000000000000000000000000000000000000000000000000000600052603260045260246000fd5b60008151905061452f816140e7565b92915050565b60006020828403121561454b5761454a613e4e565b5b600061455984828501614520565b91505092915050565b7f4e487b7100000000000000000000000000000000000000000000000000000000600052601160045260246000fd5b600061459c82613ede565b91506145a783613ede565b92508282019050808211156145bf576145be614562565b5b92915050565b60006145d082613ede565b91507fffffffffffffffffffffffffffffffffffffffffffffffffffffffffffffffff820361460257614601614562565b5b600182019050919050565b600061461882613e73565b9050919050565b6146288161460d565b811461463357600080fd5b50565b6000815190506146458161461f565b92915050565b60006020828403121561466157614660613e4e565b5b600061466f84828501614636565b91505092915050565b600082825260208201905092915050565b7f56657374696e674d616e616765723a20636f6e7472616374206e6f742072656760008201527f6973746572656400000000000000000000000000000000000000000000000000602082015250565b60006146e5602783614678565b91506146f082614689565b604082019050919050565b60006020820190508181036000830152614714816146d8565b9050919050565b60008151905061472a81613e85565b92915050565b60006020828403121561474657614745613e4e565b5b60006147548482850161471b565b91505092915050565b7f4e487b7100000000000000000000000000000000000000000000000000000000600052604160045260246000fd5b600061479782613ede565b91506147a283613ede565b92508282039050818111156147ba576147b9614562565b5b92915050565b7f4e487b7100000000000000000000000000000000000000000000000000000000600052603160045260246000fd5b7f56657374696e674d616e616765723a20636f6e7472616374206164647265737360008201527f206973207a65726f000000000000000000000000000000000000000000000000602082015250565b600061484b602883614678565b9150614856826147ef565b604082019050919050565b6000602082019050818103600083015261487a8161483e565b9050919050565b7f56657374696e674d616e616765723a20636f6e747261637420616c726561647960008201527f2072656769737465726564000000000000000000000000000000000000000000602082015250565b60006148dd602b83614678565b91506148e882614881565b604082019050919050565b6000602082019050818103600083015261490c816148d0565b9050919050565b7f4f776e61626c653a206e6577206f776e657220697320746865207a65726f206160008201527f6464726573730000000000000000000000000000000000000000000000000000602082015250565b600061496f602683614678565b915061497a82614913565b604082019050919050565b6000602082019050818103600083015261499e81614962565b9050919050565b7f4f776e61626c653a2063616c6c6572206973206e6f7420746865206f776e6572600082015250565b60006149db602083614678565b91506149e6826149a5565b602082019050919050565b60006020820190508181036000830152614a0a816149ce565b905091905056fea2646970667358221220f26f1ec86c942cd6b2c54a68e3c74a614670efd8e6e6593965914566eec1f45b64736f6c63430008140033",
  "linkReferences": {},
  "deployedLinkReferences": {}
}